{
  "_format": "hh-sol-artifact-1",
  "contractName": "Aggregator",
  "sourceName": "contracts/Aggregator.sol",
  "abi": [
    {
      "inputs": [
        {
          "internalType": "contract AMM",
          "name": "_amm1",
          "type": "address"
        },
        {
          "internalType": "contract AMM",
          "name": "_amm2",
          "type": "address"
        }
      ],
      "stateMutability": "nonpayable",
      "type": "constructor"
    },
    {
      "inputs": [],
      "name": "amm1",
      "outputs": [
        {
          "internalType": "contract AMM",
          "name": "",
          "type": "address"
        }
      ],
      "stateMutability": "view",
      "type": "function"
    },
    {
      "inputs": [],
      "name": "amm2",
      "outputs": [
        {
          "internalType": "contract AMM",
          "name": "",
          "type": "address"
        }
      ],
      "stateMutability": "view",
      "type": "function"
    },
    {
      "inputs": [
        {
          "internalType": "address",
          "name": "tokenGive",
          "type": "address"
        },
        {
          "internalType": "uint256",
          "name": "tokenGiveAmount",
          "type": "uint256"
        },
        {
          "internalType": "uint256",
          "name": "minTokenGetAmount",
          "type": "uint256"
        }
      ],
      "name": "executeSwap",
      "outputs": [
        {
          "internalType": "uint256",
          "name": "tokenGetAmount",
          "type": "uint256"
        }
      ],
      "stateMutability": "nonpayable",
      "type": "function"
    },
    {
      "inputs": [
        {
          "internalType": "uint256",
          "name": "amount",
          "type": "uint256"
        }
      ],
      "name": "getBestPrice",
      "outputs": [
        {
          "internalType": "uint256",
          "name": "",
          "type": "uint256"
        },
        {
          "internalType": "address",
          "name": "",
          "type": "address"
        }
      ],
      "stateMutability": "view",
      "type": "function"
    },
    {
      "inputs": [
        {
          "internalType": "uint256",
          "name": "amount",
          "type": "uint256"
        }
      ],
      "name": "getBestReversePrice",
      "outputs": [
        {
          "internalType": "uint256",
          "name": "",
          "type": "uint256"
        },
        {
          "internalType": "address",
          "name": "",
          "type": "address"
        }
      ],
      "stateMutability": "view",
      "type": "function"
    }
  ],
  "bytecode": "0x60806040523480156200001157600080fd5b50604051620015183803806200151883398181016040528101906200003791906200013e565b816000806101000a81548173ffffffffffffffffffffffffffffffffffffffff021916908373ffffffffffffffffffffffffffffffffffffffff16021790555080600160006101000a81548173ffffffffffffffffffffffffffffffffffffffff021916908373ffffffffffffffffffffffffffffffffffffffff160217905550505062000185565b600080fd5b600073ffffffffffffffffffffffffffffffffffffffff82169050919050565b6000620000f282620000c5565b9050919050565b60006200010682620000e5565b9050919050565b6200011881620000f9565b81146200012457600080fd5b50565b60008151905062000138816200010d565b92915050565b60008060408385031215620001585762000157620000c0565b5b6000620001688582860162000127565b92505060206200017b8582860162000127565b9150509250929050565b61138380620001956000396000f3fe608060405234801561001057600080fd5b50600436106100575760003560e01c80630b8726be1461005c578063794dfa501461007a5780637fcf071714610098578063c4080916146100c8578063ec0fcfc7146100f9575b600080fd5b61006461012a565b6040516100719190610eea565b60405180910390f35b61008261014e565b60405161008f9190610eea565b60405180910390f35b6100b260048036038101906100ad9190610f7e565b610174565b6040516100bf9190610fe0565b60405180910390f35b6100e260048036038101906100dd9190610ffb565b610ae1565b6040516100f0929190611037565b60405180910390f35b610113600480360381019061010e9190610ffb565b610ca6565b604051610121929190611037565b60405180910390f35b60008054906101000a900473ffffffffffffffffffffffffffffffffffffffff1681565b600160009054906101000a900473ffffffffffffffffffffffffffffffffffffffff1681565b60008060008060008054906101000a900473ffffffffffffffffffffffffffffffffffffffff1673ffffffffffffffffffffffffffffffffffffffff1663d21220a76040518163ffffffff1660e01b815260040160206040518083038186803b1580156101e057600080fd5b505afa1580156101f4573d6000803e3d6000fd5b505050506040513d601f19601f82011682018060405250810190610218919061109e565b73ffffffffffffffffffffffffffffffffffffffff168773ffffffffffffffffffffffffffffffffffffffff16148061031b5750600160009054906101000a900473ffffffffffffffffffffffffffffffffffffffff1673ffffffffffffffffffffffffffffffffffffffff1663d21220a76040518163ffffffff1660e01b815260040160206040518083038186803b1580156102b457600080fd5b505afa1580156102c8573d6000803e3d6000fd5b505050506040513d601f19601f820116820180604052508101906102ec919061109e565b73ffffffffffffffffffffffffffffffffffffffff168773ffffffffffffffffffffffffffffffffffffffff16145b156104815760008054906101000a900473ffffffffffffffffffffffffffffffffffffffff1673ffffffffffffffffffffffffffffffffffffffff1663e682ca69876040518263ffffffff1660e01b81526004016103799190610fe0565b60206040518083038186803b15801561039157600080fd5b505afa1580156103a5573d6000803e3d6000fd5b505050506040513d601f19601f820116820180604052508101906103c991906110e0565b9250600160009054906101000a900473ffffffffffffffffffffffffffffffffffffffff1673ffffffffffffffffffffffffffffffffffffffff1663e682ca69876040518263ffffffff1660e01b81526004016104269190610fe0565b60206040518083038186803b15801561043e57600080fd5b505afa158015610452573d6000803e3d6000fd5b505050506040513d601f19601f8201168201806040525081019061047691906110e0565b9150600190506105de565b60008054906101000a900473ffffffffffffffffffffffffffffffffffffffff1673ffffffffffffffffffffffffffffffffffffffff1663c5b38c05876040518263ffffffff1660e01b81526004016104da9190610fe0565b60206040518083038186803b1580156104f257600080fd5b505afa158015610506573d6000803e3d6000fd5b505050506040513d601f19601f8201168201806040525081019061052a91906110e0565b9250600160009054906101000a900473ffffffffffffffffffffffffffffffffffffffff1673ffffffffffffffffffffffffffffffffffffffff1663c5b38c05876040518263ffffffff1660e01b81526004016105879190610fe0565b60206040518083038186803b15801561059f57600080fd5b505afa1580156105b3573d6000803e3d6000fd5b505050506040513d601f19601f820116820180604052508101906105d791906110e0565b9150600090505b600082841161060f57600160009054906101000a900473ffffffffffffffffffffffffffffffffffffffff16610631565b60008054906101000a900473ffffffffffffffffffffffffffffffffffffffff165b905060008890508073ffffffffffffffffffffffffffffffffffffffff166323b872dd33308b6040518463ffffffff1660e01b81526004016106759392919061110d565b602060405180830381600087803b15801561068f57600080fd5b505af11580156106a3573d6000803e3d6000fd5b505050506040513d601f19601f820116820180604052508101906106c7919061117c565b610706576040517f08c379a00000000000000000000000000000000000000000000000000000000081526004016106fd90611206565b60405180910390fd5b8073ffffffffffffffffffffffffffffffffffffffff1663095ea7b3838a6040518363ffffffff1660e01b8152600401610741929190611226565b602060405180830381600087803b15801561075b57600080fd5b505af115801561076f573d6000803e3d6000fd5b505050506040513d601f19601f82011682018060405250810190610793919061117c565b50821561082c578173ffffffffffffffffffffffffffffffffffffffff1663f4cb34d4896040518263ffffffff1660e01b81526004016107d39190610fe0565b602060405180830381600087803b1580156107ed57600080fd5b505af1158015610801573d6000803e3d6000fd5b505050506040513d601f19601f8201168201806040525081019061082591906110e0565b95506108ba565b8173ffffffffffffffffffffffffffffffffffffffff1663980d69d3896040518263ffffffff1660e01b81526004016108659190610fe0565b602060405180830381600087803b15801561087f57600080fd5b505af1158015610893573d6000803e3d6000fd5b505050506040513d601f19601f820116820180604052508101906108b791906110e0565b95505b868610156108fd576040517f08c379a00000000000000000000000000000000000000000000000000000000081526004016108f49061129b565b60405180910390fd5b600083610987578273ffffffffffffffffffffffffffffffffffffffff1663d21220a76040518163ffffffff1660e01b815260040160206040518083038186803b15801561094a57600080fd5b505afa15801561095e573d6000803e3d6000fd5b505050506040513d601f19601f82011682018060405250810190610982919061109e565b610a06565b8273ffffffffffffffffffffffffffffffffffffffff166325be124e6040518163ffffffff1660e01b815260040160206040518083038186803b1580156109cd57600080fd5b505afa1580156109e1573d6000803e3d6000fd5b505050506040513d601f19601f82011682018060405250810190610a05919061109e565b5b90508073ffffffffffffffffffffffffffffffffffffffff1663a9059cbb33896040518363ffffffff1660e01b8152600401610a43929190611226565b602060405180830381600087803b158015610a5d57600080fd5b505af1158015610a71573d6000803e3d6000fd5b505050506040513d601f19601f82011682018060405250810190610a95919061117c565b610ad4576040517f08c379a0000000000000000000000000000000000000000000000000000000008152600401610acb9061132d565b60405180910390fd5b5050505050509392505050565b60008060008060009054906101000a900473ffffffffffffffffffffffffffffffffffffffff1673ffffffffffffffffffffffffffffffffffffffff1663e7572230856040518263ffffffff1660e01b8152600401610b409190610fe0565b60206040518083038186803b158015610b5857600080fd5b505afa158015610b6c573d6000803e3d6000fd5b505050506040513d601f19601f82011682018060405250810190610b9091906110e0565b90506000600160009054906101000a900473ffffffffffffffffffffffffffffffffffffffff1673ffffffffffffffffffffffffffffffffffffffff1663e7572230866040518263ffffffff1660e01b8152600401610bef9190610fe0565b60206040518083038186803b158015610c0757600080fd5b505afa158015610c1b573d6000803e3d6000fd5b505050506040513d601f19601f82011682018060405250810190610c3f91906110e0565b905080821115610c76578160008054906101000a900473ffffffffffffffffffffffffffffffffffffffff16935093505050610ca1565b80600160009054906101000a900473ffffffffffffffffffffffffffffffffffffffff169350935050505b915091565b60008060008060009054906101000a900473ffffffffffffffffffffffffffffffffffffffff1673ffffffffffffffffffffffffffffffffffffffff16633232456f856040518263ffffffff1660e01b8152600401610d059190610fe0565b60206040518083038186803b158015610d1d57600080fd5b505afa158015610d31573d6000803e3d6000fd5b505050506040513d601f19601f82011682018060405250810190610d5591906110e0565b90506000600160009054906101000a900473ffffffffffffffffffffffffffffffffffffffff1673ffffffffffffffffffffffffffffffffffffffff16633232456f866040518263ffffffff1660e01b8152600401610db49190610fe0565b60206040518083038186803b158015610dcc57600080fd5b505afa158015610de0573d6000803e3d6000fd5b505050506040513d601f19601f82011682018060405250810190610e0491906110e0565b905080821115610e3b578160008054906101000a900473ffffffffffffffffffffffffffffffffffffffff16935093505050610e66565b80600160009054906101000a900473ffffffffffffffffffffffffffffffffffffffff169350935050505b915091565b600073ffffffffffffffffffffffffffffffffffffffff82169050919050565b6000819050919050565b6000610eb0610eab610ea684610e6b565b610e8b565b610e6b565b9050919050565b6000610ec282610e95565b9050919050565b6000610ed482610eb7565b9050919050565b610ee481610ec9565b82525050565b6000602082019050610eff6000830184610edb565b92915050565b600080fd5b6000610f1582610e6b565b9050919050565b610f2581610f0a565b8114610f3057600080fd5b50565b600081359050610f4281610f1c565b92915050565b6000819050919050565b610f5b81610f48565b8114610f6657600080fd5b50565b600081359050610f7881610f52565b92915050565b600080600060608486031215610f9757610f96610f05565b5b6000610fa586828701610f33565b9350506020610fb686828701610f69565b9250506040610fc786828701610f69565b9150509250925092565b610fda81610f48565b82525050565b6000602082019050610ff56000830184610fd1565b92915050565b60006020828403121561101157611010610f05565b5b600061101f84828501610f69565b91505092915050565b61103181610f0a565b82525050565b600060408201905061104c6000830185610fd1565b6110596020830184611028565b9392505050565b600061106b82610f0a565b9050919050565b61107b81611060565b811461108657600080fd5b50565b60008151905061109881611072565b92915050565b6000602082840312156110b4576110b3610f05565b5b60006110c284828501611089565b91505092915050565b6000815190506110da81610f52565b92915050565b6000602082840312156110f6576110f5610f05565b5b6000611104848285016110cb565b91505092915050565b60006060820190506111226000830186611028565b61112f6020830185611028565b61113c6040830184610fd1565b949350505050565b60008115159050919050565b61115981611144565b811461116457600080fd5b50565b60008151905061117681611150565b92915050565b60006020828403121561119257611191610f05565b5b60006111a084828501611167565b91505092915050565b600082825260208201905092915050565b7f546f6b656e207472616e73666572206661696c65640000000000000000000000600082015250565b60006111f06015836111a9565b91506111fb826111ba565b602082019050919050565b6000602082019050818103600083015261121f816111e3565b9050919050565b600060408201905061123b6000830185611028565b6112486020830184610fd1565b9392505050565b7f536c697070616765206578636565646564000000000000000000000000000000600082015250565b60006112856011836111a9565b91506112908261124f565b602082019050919050565b600060208201905081810360008301526112b481611278565b9050919050565b7f4661696c656420746f207472616e73666572207377617070656420746f6b656e60008201527f7300000000000000000000000000000000000000000000000000000000000000602082015250565b60006113176021836111a9565b9150611322826112bb565b604082019050919050565b600060208201905081810360008301526113468161130a565b905091905056fea26469706673582212205ac0664616385b61b5d35a3d220e2b2349016cda772d3c35634e8ddcee02c75164736f6c63430008090033",
  "linkReferences": {},
  "deployedLinkReferences": {}
}