{
  "_format": "hh-sol-artifact-1",
  "contractName": "AMM",
  "sourceName": "contracts/AMM.sol",
  "abi": [
    {
      "inputs": [
        {
          "internalType": "contract Token",
          "name": "_token1",
          "type": "address"
        },
        {
          "internalType": "contract Token",
          "name": "_token2",
          "type": "address"
        }
      ],
      "stateMutability": "nonpayable",
      "type": "constructor"
    },
    {
      "anonymous": false,
      "inputs": [
        {
          "indexed": false,
          "internalType": "address",
          "name": "user",
          "type": "address"
        },
        {
          "indexed": false,
          "internalType": "address",
          "name": "tokenGive",
          "type": "address"
        },
        {
          "indexed": false,
          "internalType": "uint256",
          "name": "tokenGiveAmount",
          "type": "uint256"
        },
        {
          "indexed": false,
          "internalType": "address",
          "name": "tokenGet",
          "type": "address"
        },
        {
          "indexed": false,
          "internalType": "uint256",
          "name": "tokenGetAmount",
          "type": "uint256"
        },
        {
          "indexed": false,
          "internalType": "uint256",
          "name": "token1Balance",
          "type": "uint256"
        },
        {
          "indexed": false,
          "internalType": "uint256",
          "name": "token2Balance",
          "type": "uint256"
        },
        {
          "indexed": false,
          "internalType": "uint256",
          "name": "timestamp",
          "type": "uint256"
        }
      ],
      "name": "Swap",
      "type": "event"
    },
    {
      "inputs": [],
      "name": "K",
      "outputs": [
        {
          "internalType": "uint256",
          "name": "",
          "type": "uint256"
        }
      ],
      "stateMutability": "view",
      "type": "function"
    },
    {
      "inputs": [
        {
          "internalType": "uint256",
          "name": "_token1Amount",
          "type": "uint256"
        },
        {
          "internalType": "uint256",
          "name": "_token2Amount",
          "type": "uint256"
        }
      ],
      "name": "addLiquidity",
      "outputs": [],
      "stateMutability": "nonpayable",
      "type": "function"
    },
    {
      "inputs": [
        {
          "internalType": "uint256",
          "name": "_token2Amount",
          "type": "uint256"
        }
      ],
      "name": "calculateToken1Deposit",
      "outputs": [
        {
          "internalType": "uint256",
          "name": "token1Amount",
          "type": "uint256"
        }
      ],
      "stateMutability": "view",
      "type": "function"
    },
    {
      "inputs": [
        {
          "internalType": "uint256",
          "name": "_token1Amount",
          "type": "uint256"
        }
      ],
      "name": "calculateToken1Swap",
      "outputs": [
        {
          "internalType": "uint256",
          "name": "token2Amount",
          "type": "uint256"
        }
      ],
      "stateMutability": "view",
      "type": "function"
    },
    {
      "inputs": [
        {
          "internalType": "uint256",
          "name": "_token1Amount",
          "type": "uint256"
        }
      ],
      "name": "calculateToken2Deposit",
      "outputs": [
        {
          "internalType": "uint256",
          "name": "token2Amount",
          "type": "uint256"
        }
      ],
      "stateMutability": "view",
      "type": "function"
    },
    {
      "inputs": [
        {
          "internalType": "uint256",
          "name": "_token2Amount",
          "type": "uint256"
        }
      ],
      "name": "calculateToken2Swap",
      "outputs": [
        {
          "internalType": "uint256",
          "name": "token1Amount",
          "type": "uint256"
        }
      ],
      "stateMutability": "view",
      "type": "function"
    },
    {
      "inputs": [
        {
          "internalType": "uint256",
          "name": "_share",
          "type": "uint256"
        }
      ],
      "name": "calculateWithdrawAmount",
      "outputs": [
        {
          "internalType": "uint256",
          "name": "token1Amount",
          "type": "uint256"
        },
        {
          "internalType": "uint256",
          "name": "token2Amount",
          "type": "uint256"
        }
      ],
      "stateMutability": "view",
      "type": "function"
    },
    {
      "inputs": [
        {
          "internalType": "uint256",
          "name": "_amount",
          "type": "uint256"
        }
      ],
      "name": "getPrice",
      "outputs": [
        {
          "internalType": "uint256",
          "name": "amount",
          "type": "uint256"
        }
      ],
      "stateMutability": "view",
      "type": "function"
    },
    {
      "inputs": [
        {
          "internalType": "uint256",
          "name": "_amount",
          "type": "uint256"
        }
      ],
      "name": "getReversePrice",
      "outputs": [
        {
          "internalType": "uint256",
          "name": "amount",
          "type": "uint256"
        }
      ],
      "stateMutability": "view",
      "type": "function"
    },
    {
      "inputs": [
        {
          "internalType": "uint256",
          "name": "_share",
          "type": "uint256"
        }
      ],
      "name": "removeLiquidity",
      "outputs": [
        {
          "internalType": "uint256",
          "name": "token1Amount",
          "type": "uint256"
        },
        {
          "internalType": "uint256",
          "name": "token2Amount",
          "type": "uint256"
        }
      ],
      "stateMutability": "nonpayable",
      "type": "function"
    },
    {
      "inputs": [
        {
          "internalType": "address",
          "name": "",
          "type": "address"
        }
      ],
      "name": "shares",
      "outputs": [
        {
          "internalType": "uint256",
          "name": "",
          "type": "uint256"
        }
      ],
      "stateMutability": "view",
      "type": "function"
    },
    {
      "inputs": [
        {
          "internalType": "uint256",
          "name": "_token1Amount",
          "type": "uint256"
        }
      ],
      "name": "swapToken1",
      "outputs": [
        {
          "internalType": "uint256",
          "name": "token2Amount",
          "type": "uint256"
        }
      ],
      "stateMutability": "nonpayable",
      "type": "function"
    },
    {
      "inputs": [
        {
          "internalType": "uint256",
          "name": "_token2Amount",
          "type": "uint256"
        }
      ],
      "name": "swapToken2",
      "outputs": [
        {
          "internalType": "uint256",
          "name": "token1Amount",
          "type": "uint256"
        }
      ],
      "stateMutability": "nonpayable",
      "type": "function"
    },
    {
      "inputs": [],
      "name": "token1",
      "outputs": [
        {
          "internalType": "contract Token",
          "name": "",
          "type": "address"
        }
      ],
      "stateMutability": "view",
      "type": "function"
    },
    {
      "inputs": [],
      "name": "token1Balance",
      "outputs": [
        {
          "internalType": "uint256",
          "name": "",
          "type": "uint256"
        }
      ],
      "stateMutability": "view",
      "type": "function"
    },
    {
      "inputs": [],
      "name": "token2",
      "outputs": [
        {
          "internalType": "contract Token",
          "name": "",
          "type": "address"
        }
      ],
      "stateMutability": "view",
      "type": "function"
    },
    {
      "inputs": [],
      "name": "token2Balance",
      "outputs": [
        {
          "internalType": "uint256",
          "name": "",
          "type": "uint256"
        }
      ],
      "stateMutability": "view",
      "type": "function"
    },
    {
      "inputs": [],
      "name": "totalShares",
      "outputs": [
        {
          "internalType": "uint256",
          "name": "",
          "type": "uint256"
        }
      ],
      "stateMutability": "view",
      "type": "function"
    }
  ],
  "bytecode": "0x60806040523480156200001157600080fd5b5060405162001aa938038062001aa983398181016040528101906200003791906200013e565b816000806101000a81548173ffffffffffffffffffffffffffffffffffffffff021916908373ffffffffffffffffffffffffffffffffffffffff16021790555080600160006101000a81548173ffffffffffffffffffffffffffffffffffffffff021916908373ffffffffffffffffffffffffffffffffffffffff160217905550505062000185565b600080fd5b600073ffffffffffffffffffffffffffffffffffffffff82169050919050565b6000620000f282620000c5565b9050919050565b60006200010682620000e5565b9050919050565b6200011881620000f9565b81146200012457600080fd5b50565b60008151905062000138816200010d565b92915050565b60008060408385031215620001585762000157620000c0565b5b6000620001688582860162000127565b92505060206200017b8582860162000127565b9150509250929050565b61191480620001956000396000f3fe608060405234801561001057600080fd5b50600436106101165760003560e01c8063b9ffa6a8116100a2578063de1b6d2a11610071578063de1b6d2a1461030c578063e682ca691461033c578063e75722301461036c578063f4cb34d41461039c578063fde6c9fb146103cc57610116565b8063b9ffa6a814610270578063c5b38c051461028e578063ce7c2ac2146102be578063d21220a7146102ee57610116565b8063980d69d3116100e9578063980d69d3146101a55780639a5c77a8146101d55780639c8f9f23146102055780639cd441da14610236578063a932492f1461025257610116565b806325be124e1461011b5780633232456f146101395780633a98ef391461016957806368a455f114610187575b600080fd5b6101236103fd565b60405161013091906111af565b60405180910390f35b610153600480360381019061014e9190611205565b610423565b6040516101609190611241565b60405180910390f35b610171610447565b60405161017e9190611241565b60405180910390f35b61018f61044d565b60405161019c9190611241565b60405180910390f35b6101bf60048036038101906101ba9190611205565b610453565b6040516101cc9190611241565b60405180910390f35b6101ef60048036038101906101ea9190611205565b610682565b6040516101fc9190611241565b60405180910390f35b61021f600480360381019061021a9190611205565b6106a6565b60405161022d92919061125c565b60405180910390f35b610250600480360381019061024b9190611285565b610956565b005b61025a610cb8565b6040516102679190611241565b60405180910390f35b610278610cbe565b6040516102859190611241565b60405180910390f35b6102a860048036038101906102a39190611205565b610cc4565b6040516102b59190611241565b60405180910390f35b6102d860048036038101906102d39190611303565b610d5d565b6040516102e59190611241565b60405180910390f35b6102f6610d75565b60405161030391906111af565b60405180910390f35b61032660048036038101906103219190611205565b610d99565b6040516103339190611241565b60405180910390f35b61035660048036038101906103519190611205565b610dbd565b6040516103639190611241565b60405180910390f35b61038660048036038101906103819190611205565b610e56565b6040516103939190611241565b60405180910390f35b6103b660048036038101906103b19190611205565b610e7a565b6040516103c39190611241565b60405180910390f35b6103e660048036038101906103e19190611205565b6110a9565b6040516103f492919061125c565b60405180910390f35b600160009054906101000a900473ffffffffffffffffffffffffffffffffffffffff1681565b600060035460025483610436919061135f565b61044091906113e8565b9050919050565b60055481565b60035481565b600061045e82610cc4565b9050600160009054906101000a900473ffffffffffffffffffffffffffffffffffffffff1673ffffffffffffffffffffffffffffffffffffffff166323b872dd3330856040518463ffffffff1660e01b81526004016104bf93929190611428565b602060405180830381600087803b1580156104d957600080fd5b505af11580156104ed573d6000803e3d6000fd5b505050506040513d601f19601f820116820180604052508101906105119190611497565b50816003600082825461052491906114c4565b92505081905550806002600082825461053d919061151a565b9250508190555060008054906101000a900473ffffffffffffffffffffffffffffffffffffffff1673ffffffffffffffffffffffffffffffffffffffff1663a9059cbb33836040518363ffffffff1660e01b815260040161059f92919061154e565b602060405180830381600087803b1580156105b957600080fd5b505af11580156105cd573d6000803e3d6000fd5b505050506040513d601f19601f820116820180604052508101906105f19190611497565b507f31c309ecd457dce7604a286d63a4b470e321337fb9877ce63c1109e1003c89f633600160009054906101000a900473ffffffffffffffffffffffffffffffffffffffff168460008054906101000a900473ffffffffffffffffffffffffffffffffffffffff168560025460035442604051610675989796959493929190611577565b60405180910390a1919050565b600060025482600354610695919061135f565b61069f91906113e8565b9050919050565b600080600660003373ffffffffffffffffffffffffffffffffffffffff1673ffffffffffffffffffffffffffffffffffffffff1681526020019081526020016000205483111561072b576040517f08c379a000000000000000000000000000000000000000000000000000000000815260040161072290611678565b60405180910390fd5b610734836110a9565b809250819350505082600660003373ffffffffffffffffffffffffffffffffffffffff1673ffffffffffffffffffffffffffffffffffffffff168152602001908152602001600020600082825461078b919061151a565b9250508190555082600560008282546107a4919061151a565b9250508190555081600260008282546107bd919061151a565b9250508190555080600360008282546107d6919061151a565b925050819055506003546002546107ed919061135f565b60048190555060008054906101000a900473ffffffffffffffffffffffffffffffffffffffff1673ffffffffffffffffffffffffffffffffffffffff1663a9059cbb33846040518363ffffffff1660e01b815260040161084e92919061154e565b602060405180830381600087803b15801561086857600080fd5b505af115801561087c573d6000803e3d6000fd5b505050506040513d601f19601f820116820180604052508101906108a09190611497565b50600160009054906101000a900473ffffffffffffffffffffffffffffffffffffffff1673ffffffffffffffffffffffffffffffffffffffff1663a9059cbb33836040518363ffffffff1660e01b81526004016108fe92919061154e565b602060405180830381600087803b15801561091857600080fd5b505af115801561092c573d6000803e3d6000fd5b505050506040513d601f19601f820116820180604052508101906109509190611497565b50915091565b60008054906101000a900473ffffffffffffffffffffffffffffffffffffffff1673ffffffffffffffffffffffffffffffffffffffff166323b872dd3330856040518463ffffffff1660e01b81526004016109b393929190611428565b602060405180830381600087803b1580156109cd57600080fd5b505af11580156109e1573d6000803e3d6000fd5b505050506040513d601f19601f82011682018060405250810190610a059190611497565b610a44576040517f08c379a0000000000000000000000000000000000000000000000000000000008152600401610a3b906116e4565b60405180910390fd5b600160009054906101000a900473ffffffffffffffffffffffffffffffffffffffff1673ffffffffffffffffffffffffffffffffffffffff166323b872dd3330846040518463ffffffff1660e01b8152600401610aa393929190611428565b602060405180830381600087803b158015610abd57600080fd5b505af1158015610ad1573d6000803e3d6000fd5b505050506040513d601f19601f82011682018060405250810190610af59190611497565b610b34576040517f08c379a0000000000000000000000000000000000000000000000000000000008152600401610b2b90611750565b60405180910390fd5b6000806005541415610b5c57670de0b6b3a76400006064610b55919061135f565b9050610bfc565b600060025484600554610b6f919061135f565b610b7991906113e8565b9050600060035484600554610b8e919061135f565b610b9891906113e8565b90506103e881610ba891906113e8565b6103e883610bb691906113e8565b14610bf6576040517f08c379a0000000000000000000000000000000000000000000000000000000008152600401610bed906117bc565b60405180910390fd5b81925050505b8260026000828254610c0e91906114c4565b925050819055508160036000828254610c2791906114c4565b92505081905550600354600254610c3e919061135f565b6004819055508060056000828254610c5691906114c4565b9250508190555080600660003373ffffffffffffffffffffffffffffffffffffffff1673ffffffffffffffffffffffffffffffffffffffff1681526020019081526020016000206000828254610cac91906114c4565b92505081905550505050565b60045481565b60025481565b60008082600354610cd591906114c4565b9050600081600454610ce791906113e8565b905080600254610cf7919061151a565b9250600254831415610d12578280610d0e906117dc565b9350505b6002548310610d56576040517f08c379a0000000000000000000000000000000000000000000000000000000008152600401610d4d90611852565b60405180910390fd5b5050919050565b60066020528060005260406000206000915090505481565b60008054906101000a900473ffffffffffffffffffffffffffffffffffffffff1681565b600060035482600254610dac919061135f565b610db691906113e8565b9050919050565b60008082600254610dce91906114c4565b9050600081600454610de091906113e8565b905080600354610df0919061151a565b9250600354831415610e0b578280610e07906117dc565b9350505b6003548310610e4f576040517f08c379a0000000000000000000000000000000000000000000000000000000008152600401610e4690611852565b60405180910390fd5b5050919050565b600060025460035483610e69919061135f565b610e7391906113e8565b9050919050565b6000610e8582610dbd565b905060008054906101000a900473ffffffffffffffffffffffffffffffffffffffff1673ffffffffffffffffffffffffffffffffffffffff166323b872dd3330856040518463ffffffff1660e01b8152600401610ee493929190611428565b602060405180830381600087803b158015610efe57600080fd5b505af1158015610f12573d6000803e3d6000fd5b505050506040513d601f19601f82011682018060405250810190610f369190611497565b508160026000828254610f4991906114c4565b925050819055508060036000828254610f62919061151a565b92505081905550600160009054906101000a900473ffffffffffffffffffffffffffffffffffffffff1673ffffffffffffffffffffffffffffffffffffffff1663a9059cbb33836040518363ffffffff1660e01b8152600401610fc692919061154e565b602060405180830381600087803b158015610fe057600080fd5b505af1158015610ff4573d6000803e3d6000fd5b505050506040513d601f19601f820116820180604052508101906110189190611497565b507f31c309ecd457dce7604a286d63a4b470e321337fb9877ce63c1109e1003c89f63360008054906101000a900473ffffffffffffffffffffffffffffffffffffffff1684600160009054906101000a900473ffffffffffffffffffffffffffffffffffffffff16856002546003544260405161109c989796959493929190611577565b60405180910390a1919050565b6000806005548311156110f1576040517f08c379a00000000000000000000000000000000000000000000000000000000081526004016110e8906118be565b60405180910390fd5b60055460025484611102919061135f565b61110c91906113e8565b91506005546003548461111f919061135f565b61112991906113e8565b9050915091565b600073ffffffffffffffffffffffffffffffffffffffff82169050919050565b6000819050919050565b600061117561117061116b84611130565b611150565b611130565b9050919050565b60006111878261115a565b9050919050565b60006111998261117c565b9050919050565b6111a98161118e565b82525050565b60006020820190506111c460008301846111a0565b92915050565b600080fd5b6000819050919050565b6111e2816111cf565b81146111ed57600080fd5b50565b6000813590506111ff816111d9565b92915050565b60006020828403121561121b5761121a6111ca565b5b6000611229848285016111f0565b91505092915050565b61123b816111cf565b82525050565b60006020820190506112566000830184611232565b92915050565b60006040820190506112716000830185611232565b61127e6020830184611232565b9392505050565b6000806040838503121561129c5761129b6111ca565b5b60006112aa858286016111f0565b92505060206112bb858286016111f0565b9150509250929050565b60006112d082611130565b9050919050565b6112e0816112c5565b81146112eb57600080fd5b50565b6000813590506112fd816112d7565b92915050565b600060208284031215611319576113186111ca565b5b6000611327848285016112ee565b91505092915050565b7f4e487b7100000000000000000000000000000000000000000000000000000000600052601160045260246000fd5b600061136a826111cf565b9150611375836111cf565b9250817fffffffffffffffffffffffffffffffffffffffffffffffffffffffffffffffff04831182151516156113ae576113ad611330565b5b828202905092915050565b7f4e487b7100000000000000000000000000000000000000000000000000000000600052601260045260246000fd5b60006113f3826111cf565b91506113fe836111cf565b92508261140e5761140d6113b9565b5b828204905092915050565b611422816112c5565b82525050565b600060608201905061143d6000830186611419565b61144a6020830185611419565b6114576040830184611232565b949350505050565b60008115159050919050565b6114748161145f565b811461147f57600080fd5b50565b6000815190506114918161146b565b92915050565b6000602082840312156114ad576114ac6111ca565b5b60006114bb84828501611482565b91505092915050565b60006114cf826111cf565b91506114da836111cf565b9250827fffffffffffffffffffffffffffffffffffffffffffffffffffffffffffffffff0382111561150f5761150e611330565b5b828201905092915050565b6000611525826111cf565b9150611530836111cf565b92508282101561154357611542611330565b5b828203905092915050565b60006040820190506115636000830185611419565b6115706020830184611232565b9392505050565b60006101008201905061158d600083018b611419565b61159a602083018a611419565b6115a76040830189611232565b6115b46060830188611419565b6115c16080830187611232565b6115ce60a0830186611232565b6115db60c0830185611232565b6115e860e0830184611232565b9998505050505050505050565b600082825260208201905092915050565b7f63616e6e6f74207769746864726177206d6f726520736861726573207468616e60008201527f20796f7520686176650000000000000000000000000000000000000000000000602082015250565b60006116626029836115f5565b915061166d82611606565b604082019050919050565b6000602082019050818103600083015261169181611655565b9050919050565b7f6661696c656420746f207472616e7366657220746f6b656e2031000000000000600082015250565b60006116ce601a836115f5565b91506116d982611698565b602082019050919050565b600060208201905081810360008301526116fd816116c1565b9050919050565b7f6661696c656420746f207472616e7366657220746f6b656e2032000000000000600082015250565b600061173a601a836115f5565b915061174582611704565b602082019050919050565b600060208201905081810360008301526117698161172d565b9050919050565b7f6d7573742070726f7669646520657175616c20746f6b656e20616d6f756e7473600082015250565b60006117a66020836115f5565b91506117b182611770565b602082019050919050565b600060208201905081810360008301526117d581611799565b9050919050565b60006117e7826111cf565b915060008214156117fb576117fa611330565b5b600182039050919050565b7f7377617020616d6f756e7420746f206c61726765000000000000000000000000600082015250565b600061183c6014836115f5565b915061184782611806565b602082019050919050565b6000602082019050818103600083015261186b8161182f565b9050919050565b7f6d757374206265206c657373207468616e20746f74616c207368617265730000600082015250565b60006118a8601e836115f5565b91506118b382611872565b602082019050919050565b600060208201905081810360008301526118d78161189b565b905091905056fea2646970667358221220391cdd07108a29c4c9f2cf6214a76ce444e9e3043f66f55c093ad0f0b93575f364736f6c63430008090033",
  "linkReferences": {},
  "deployedLinkReferences": {}
}